{
  "contractName": "Crud",
  "abi": [
    {
      "inputs": [],
      "name": "dogId",
      "outputs": [
        {
          "internalType": "uint256",
          "name": "",
          "type": "uint256"
        }
      ],
      "stateMutability": "view",
      "type": "function",
      "constant": true
    },
    {
      "inputs": [
        {
          "internalType": "uint256",
          "name": "",
          "type": "uint256"
        }
      ],
      "name": "dogs",
      "outputs": [
        {
          "internalType": "string",
          "name": "name",
          "type": "string"
        },
        {
          "internalType": "string",
          "name": "host",
          "type": "string"
        },
        {
          "internalType": "uint256",
          "name": "age",
          "type": "uint256"
        },
        {
          "internalType": "uint256",
          "name": "id",
          "type": "uint256"
        }
      ],
      "stateMutability": "view",
      "type": "function",
      "constant": true
    },
    {
      "inputs": [
        {
          "internalType": "string",
          "name": "_name",
          "type": "string"
        },
        {
          "internalType": "string",
          "name": "_host",
          "type": "string"
        },
        {
          "internalType": "uint256",
          "name": "_age",
          "type": "uint256"
        }
      ],
      "name": "createDog",
      "outputs": [],
      "stateMutability": "nonpayable",
      "type": "function"
    },
    {
      "inputs": [
        {
          "internalType": "uint256",
          "name": "_id",
          "type": "uint256"
        }
      ],
      "name": "getDog",
      "outputs": [
        {
          "components": [
            {
              "internalType": "string",
              "name": "name",
              "type": "string"
            },
            {
              "internalType": "string",
              "name": "host",
              "type": "string"
            },
            {
              "internalType": "uint256",
              "name": "age",
              "type": "uint256"
            },
            {
              "internalType": "uint256",
              "name": "id",
              "type": "uint256"
            }
          ],
          "internalType": "struct Crud.Dog",
          "name": "",
          "type": "tuple"
        }
      ],
      "stateMutability": "view",
      "type": "function",
      "constant": true
    },
    {
      "inputs": [
        {
          "internalType": "uint256",
          "name": "_id",
          "type": "uint256"
        },
        {
          "internalType": "string",
          "name": "_name",
          "type": "string"
        },
        {
          "internalType": "string",
          "name": "_host",
          "type": "string"
        },
        {
          "internalType": "uint256",
          "name": "_age",
          "type": "uint256"
        }
      ],
      "name": "updateDog",
      "outputs": [],
      "stateMutability": "nonpayable",
      "type": "function"
    },
    {
      "inputs": [
        {
          "internalType": "uint256",
          "name": "_id",
          "type": "uint256"
        }
      ],
      "name": "deleteDog",
      "outputs": [],
      "stateMutability": "nonpayable",
      "type": "function"
    }
  ],
  "bytecode": "0x608060405234801561001057600080fd5b50611023806100206000396000f3fe608060405234801561001057600080fd5b50600436106100625760003560e01c80630570bd2814610067578063382723561461008557806340d4f775146100b85780637c62e2a4146100d45780637d11811c146101045780639983268b14610120575b600080fd5b61006f61013c565b60405161007c9190610d0d565b60405180910390f35b61009f600480360381019061009a9190610a4c565b610142565b6040516100af9493929190610c58565b60405180910390f35b6100d260048036038101906100cd9190610a79565b610292565b005b6100ee60048036038101906100e99190610a4c565b6103d2565b6040516100fb9190610ceb565b60405180910390f35b61011e600480360381019061011991906109c1565b6105e4565b005b61013a60048036038101906101359190610a4c565b61072c565b005b60005481565b6001818154811061015257600080fd5b906000526020600020906004020160009150905080600001805461017590610df7565b80601f01602080910402602001604051908101604052809291908181526020018280546101a190610df7565b80156101ee5780601f106101c3576101008083540402835291602001916101ee565b820191906000526020600020905b8154815290600101906020018083116101d157829003601f168201915b50505050509080600101805461020390610df7565b80601f016020809104026020016040519081016040528092919081815260200182805461022f90610df7565b801561027c5780601f106102515761010080835404028352916020019161027c565b820191906000526020600020905b81548152906001019060200180831161025f57829003601f168201915b5050505050908060020154908060030154905084565b82826000825114156102d9576040517f08c379a00000000000000000000000000000000000000000000000000000000081526004016102d090610ccb565b60405180910390fd5b60008151141561031e576040517f08c379a000000000000000000000000000000000000000000000000000000000815260040161031590610ccb565b60405180910390fd5b600061032987610792565b905083600182815481106103405761033f610f01565b5b906000526020600020906004020160020181905550856001828154811061036a57610369610f01565b5b9060005260206000209060040201600001908051906020019061038e929190610831565b5084600182815481106103a4576103a3610f01565b5b906000526020600020906004020160010190805190602001906103c8929190610831565b5050505050505050565b6103da6108b7565b6103e26108b7565b60005b6001805490508110156105a3576001818154811061040657610405610f01565b5b906000526020600020906004020160030154841415610590576001818154811061043357610432610f01565b5b906000526020600020906004020160405180608001604052908160008201805461045c90610df7565b80601f016020809104026020016040519081016040528092919081815260200182805461048890610df7565b80156104d55780601f106104aa576101008083540402835291602001916104d5565b820191906000526020600020905b8154815290600101906020018083116104b857829003601f168201915b505050505081526020016001820180546104ee90610df7565b80601f016020809104026020016040519081016040528092919081815260200182805461051a90610df7565b80156105675780601f1061053c57610100808354040283529160200191610567565b820191906000526020600020905b81548152906001019060200180831161054a57829003601f168201915b5050505050815260200160028201548152602001600382015481525050915081925050506105df565b808061059b90610e5a565b9150506103e5565b506040517f08c379a00000000000000000000000000000000000000000000000000000000081526004016105d690610cab565b60405180910390fd5b919050565b828260008251141561062b576040517f08c379a000000000000000000000000000000000000000000000000000000000815260040161062290610ccb565b60405180910390fd5b600081511415610670576040517f08c379a000000000000000000000000000000000000000000000000000000000815260040161066790610ccb565b60405180910390fd5b60008081548092919061068290610e5a565b919050555060016040518060800160405280878152602001868152602001858152602001600054815250908060018154018082558091505060019003906000526020600020906004020160009091909190915060008201518160000190805190602001906106f1929190610831565b50602082015181600101908051906020019061070e929190610831565b50604082015181600201556060820151816003015550505050505050565b600061073782610792565b90506001818154811061074d5761074c610f01565b5b90600052602060002090600402016000808201600061076c91906108df565b60018201600061077c91906108df565b6002820160009055600382016000905550505050565b600080600090505b6001805490508110156107f057600181815481106107bb576107ba610f01565b5b9060005260206000209060040201600301548314156107dd578091505061082c565b80806107e890610e5a565b91505061079a565b506040517f08c379a000000000000000000000000000000000000000000000000000000000815260040161082390610cab565b60405180910390fd5b919050565b82805461083d90610df7565b90600052602060002090601f01602090048101928261085f57600085556108a6565b82601f1061087857805160ff19168380011785556108a6565b828001600101855582156108a6579182015b828111156108a557825182559160200191906001019061088a565b5b5090506108b3919061091f565b5090565b6040518060800160405280606081526020016060815260200160008152602001600081525090565b5080546108eb90610df7565b6000825580601f106108fd575061091c565b601f01602090049060005260206000209081019061091b919061091f565b5b50565b5b80821115610938576000816000905550600101610920565b5090565b600061094f61094a84610d4d565b610d28565b90508281526020810184848401111561096b5761096a610f64565b5b610976848285610db5565b509392505050565b600082601f83011261099357610992610f5f565b5b81356109a384826020860161093c565b91505092915050565b6000813590506109bb81610fd6565b92915050565b6000806000606084860312156109da576109d9610f6e565b5b600084013567ffffffffffffffff8111156109f8576109f7610f69565b5b610a048682870161097e565b935050602084013567ffffffffffffffff811115610a2557610a24610f69565b5b610a318682870161097e565b9250506040610a42868287016109ac565b9150509250925092565b600060208284031215610a6257610a61610f6e565b5b6000610a70848285016109ac565b91505092915050565b60008060008060808587031215610a9357610a92610f6e565b5b6000610aa1878288016109ac565b945050602085013567ffffffffffffffff811115610ac257610ac1610f69565b5b610ace8782880161097e565b935050604085013567ffffffffffffffff811115610aef57610aee610f69565b5b610afb8782880161097e565b9250506060610b0c878288016109ac565b91505092959194509250565b6000610b2382610d7e565b610b2d8185610d89565b9350610b3d818560208601610dc4565b610b4681610f73565b840191505092915050565b6000610b5c82610d7e565b610b668185610d9a565b9350610b76818560208601610dc4565b610b7f81610f73565b840191505092915050565b6000610b97601c83610d9a565b9150610ba282610f84565b602082019050919050565b6000610bba600e83610d9a565b9150610bc582610fad565b602082019050919050565b60006080830160008301518482036000860152610bed8282610b18565b91505060208301518482036020860152610c078282610b18565b9150506040830151610c1c6040860182610c3a565b506060830151610c2f6060860182610c3a565b508091505092915050565b610c4381610dab565b82525050565b610c5281610dab565b82525050565b60006080820190508181036000830152610c728187610b51565b90508181036020830152610c868186610b51565b9050610c956040830185610c49565b610ca26060830184610c49565b95945050505050565b60006020820190508181036000830152610cc481610b8a565b9050919050565b60006020820190508181036000830152610ce481610bad565b9050919050565b60006020820190508181036000830152610d058184610bd0565b905092915050565b6000602082019050610d226000830184610c49565b92915050565b6000610d32610d43565b9050610d3e8282610e29565b919050565b6000604051905090565b600067ffffffffffffffff821115610d6857610d67610f30565b5b610d7182610f73565b9050602081019050919050565b600081519050919050565b600082825260208201905092915050565b600082825260208201905092915050565b6000819050919050565b82818337600083830152505050565b60005b83811015610de2578082015181840152602081019050610dc7565b83811115610df1576000848401525b50505050565b60006002820490506001821680610e0f57607f821691505b60208210811415610e2357610e22610ed2565b5b50919050565b610e3282610f73565b810181811067ffffffffffffffff82111715610e5157610e50610f30565b5b80604052505050565b6000610e6582610dab565b91507fffffffffffffffffffffffffffffffffffffffffffffffffffffffffffffffff821415610e9857610e97610ea3565b5b600182019050919050565b7f4e487b7100000000000000000000000000000000000000000000000000000000600052601160045260246000fd5b7f4e487b7100000000000000000000000000000000000000000000000000000000600052602260045260246000fd5b7f4e487b7100000000000000000000000000000000000000000000000000000000600052603260045260246000fd5b7f4e487b7100000000000000000000000000000000000000000000000000000000600052604160045260246000fd5b600080fd5b600080fd5b600080fd5b600080fd5b6000601f19601f8301169050919050565b7f5468657265206973206e6f20646f672077697468207468697320696400000000600082015250565b7f43616e277420626520656d707479000000000000000000000000000000000000600082015250565b610fdf81610dab565b8114610fea57600080fd5b5056fea264697066735822122000fbd5198748f83a64083180d497944c97af6dd0a8e0ed5a14df764cff17dee464736f6c63430008060033",
  "immutableReferences": {},
  "source": "// SPDX-License-Identifier: MIT\npragma solidity ^0.8.6;\n\ncontract Crud {\n\n    struct Dog {\n        string name;\n        string host;\n        uint age;\n        uint id;\n    }\n\n    uint public dogId;\n    Dog[] public dogs;\n\n    function createDog(string memory _name, string memory _host, uint _age ) NonEmptyData(_name, _host) external {\n        dogId++;\n        dogs.push(Dog(_name, _host, _age, dogId));\n    }\n\n    function getDog(uint _id) public view returns(Dog memory) {\n        Dog memory dog;\n        for( uint i = 0; i < dogs.length; i++) {\n            if(_id == dogs[i].id) {\n                dog = dogs[i];\n                return dog;\n            }\n        }\n        revert(\"There is no dog with this id\");\n    }\n\n    function updateDog(uint _id, string memory _name, string memory _host, uint _age) NonEmptyData(_name, _host) external {\n        uint index = find(_id);\n        dogs[index].age = _age;\n        dogs[index].name = _name;\n        dogs[index].host = _host;\n    }\n\n    function deleteDog(uint _id) external {\n        uint id = find(_id);\n        delete dogs[id];\n    }\n\n    function find(uint _id) internal view returns(uint) {\n        for( uint i = 0; i < dogs.length; i++) {\n            if(_id == dogs[i].id) {\n                return i;\n            }\n        }\n        revert(\"There is no dog with this id\");\n    }\n\n    modifier NonEmptyData(string memory _name, string memory _host) {\n        require(bytes(_name).length != 0, \"Can't be empty\");\n        require(bytes(_host).length != 0, \"Can't be empty\");\n        _;\n    }\n\n\n}",
  "sourcePath": "/Users/iamhappy2day/Desktop/testC/contracts/Crud.sol",
  "compiler": {
    "name": "solc",
    "version": "0.8.6+commit.11564f7e.Emscripten.clang"
  },
  "schemaVersion": "3.4.6",
  "updatedAt": "2022-05-26T15:04:04.514Z",
  "networkType": "ethereum",
  "devdoc": {
    "kind": "dev",
    "methods": {},
    "version": 1
  },
  "userdoc": {
    "kind": "user",
    "methods": {},
    "version": 1
  }
}